:020000040000fa
:080000000002040000000000f2
:020000040000fa
:10000800cc02000090020000960200009c02000052
:10001800a2020000a8020000cc020000cc020000ee
:1000280080030000cc020000cc020000e6020000c1
:10003800cc020000cc020000cc020000000300004b
:10004800cc020000cc020000cc020000cc02000070
:10005800cc020000cc020000cc020000cc02000060
:10006800cc020000cc020000cc020000cc02000050
:1000780012040000cc020000cc020000cc020000f8
:10008800cc020000cc020000cc02000020030000db
:10009800cc020000ac040000cc020000cc0200003e
:1000a800cc020000cc020000cc020000cc02000010
:1000b800cc020000cc020000cc020000cc02000000
:1000c800cc020000cc020000cc020000cc020000f0
:1000d800cc020000cc020000cc020000400300006b
:1000e800cc020000cc020000cc020000600300003b
:1000f800cc02000046050000cc020000cc02000043
:10010800cc020000cc020000cc020000cc020000af
:10011800cc020000cc020000cc020000cc0200009f
:10012800cc020000cc020000cc020000cc0200008f
:10013800cc020000cc020000cc020000cc0200007f
:10014800cc020000cc020000cc020000cc0200006f
:10015800cc020000cc020000cc020000cc0200005f
:10016800cc020000cc020000cc020000cc0200004f
:10017800cc020000cc020000cc020000cc0200003f
:10018800cc020000cc020000cc020000cc0200002f
:10019800cc020000cc020000cc020000cc0200001f
:1001a800cc020000cc020000cc020000cc0200000f
:1001b800cc020000cc020000cc020000cc020000ff
:1001c800cc020000cc020000cc020000cc020000ef
:1001d800cc020000cc020000cc020000cc020000df
:1001e800cc020000cc020000cc020000cc020000cf
:0801f800cc020000cc02000063
:020000040000fa
:10020800cc020000ae020000b4020000ba020000f6
:10021800c0020000c6020000cc020000cc020000b0
:1002280080030000cc020000cc020000e6020000bf
:10023800cc020000cc020000cc0200000003000049
:10024800cc020000cc020000cc020000cc0200006e
:10025800cc020000cc020000cc020000cc0200005e
:10026800cc020000cc020000cc020000cc0200004e
:1002780012040000cc020000cc020000cc020000f6
:10028800cc020000cc020000cc02000020030000d9
:10029800cc020000ac040000cc020000cc0200003c
:1002a800cc020000cc020000cc020000cc0200000e
:1002b800cc020000cc020000cc020000cc020000fe
:1002c800cc020000cc020000cc020000cc020000ee
:1002d800cc020000cc020000cc0200004003000069
:1002e800cc020000cc020000cc0200006003000039
:1002f800cc02000046050000cc020000cc02000041
:10030800cc020000cc020000cc020000cc020000ad
:10031800cc020000cc020000cc020000cc0200009d
:10032800cc020000cc020000cc020000cc0200008d
:10033800cc020000cc020000cc020000cc0200007d
:10034800cc020000cc020000cc020000cc0200006d
:10035800cc020000cc020000cc020000cc0200005d
:10036800cc020000cc020000cc020000cc0200004d
:10037800cc020000cc020000cc020000cc0200003d
:10038800cc020000cc020000cc020000cc0200002d
:10039800cc020000cc020000cc020000cc0200001d
:1003a800cc020000cc020000cc020000cc0200000d
:1003b800cc020000cc020000cc020000cc020000fd
:1003c800cc020000cc020000cc020000cc020000ed
:1003d800cc020000cc020000cc020000cc020000dd
:1003e800cc020000cc020000cc020000cc020000cd
:0803f800cc020000cc02000061
:020000040000fa
:100400000f9020000eff27000e0188000000000062
:100410000c000700607a2000010020001100070096
:10042000000020000000e000020032000000020096
:10043000000000007a080200000000000040da001e
:100440000000fe004440a900000020000000e00081
:100450000300320000002000a00188004440a800f2
:100460000000060091018800800078000000eb0089
:1004700015003700e280400032a0b4009101ba00bc
:10048000e280400032a0b4009102ba00e280400055
:1004900032a0b4000002eb00472bde00f507b200eb
:1004a000602ce10004003a000059eb008301e900f0
:1004b000fdff3e00040037006128e100010032002a
:1004c0000082eb00040007001101ba000200e00006
:1004d000e8ff3a00000006003159ba008301e90044
:1004e0000c0032002159ba008301e90008003200f3
:1004f0000400e00003003a00e280400032a0b400b3
:10050000f5ff370011d9ba008301e900faff3a007c
:100510008100e800e180400032a0b4000000060045
:100520000000fa008020a900ffff37000000fa0059
:100530008060a900ffff37000000fa008040a9009a
:10054000ffff37000000fa008080a900ffff37009e
:100550000000fa0080a0a900ffff37000000fa00a9
:100560008020a900ffff37000000fa008060a9008a
:10057000ffff37000000fa008040a900ffff3700ae
:100580000000fa008080a900ffff37000000fa0099
:1005900080a0a900ffff37000000fa00ffff37002e
:020000040000fa
:1005a0000000fa0005e1a9000000eb00f047880018
:1005b000f0ff2700100888000000eb00000888000a
:1005c00005e1a8000080fa00000006003400f800f1
:1005d000881f780008002000a80188004f047800d8
:1005e0000000fa0005e1a9008460a900c602a90084
:1005f00005e1a8000080fa003400f9000040060080
:10060000801f78003400f80000002000a00188005e
:100610000000fa0084e0a90011e1a9000000eb004d
:10062000300888008200a9001019200010468800b8
:100630000080fa003400f9004f0078000040060006
:10064000801f78003400f80000002000a00188001e
:100650000000fa008760a9001fe1a9000000eb007c
:10066000a00888008220a9001019200020468800d8
:100670000080fa003400f9004f00780000400600c6
:10068000801f78003400f80000002000a0018800de
:100690000000fa0089e0a9002de1a9000000eb00ac
:1006a000100988008240a9001019200030468800f7
:1006b0000080fa003400f9004f0078000040060086
:1006c000801f78003400f80000002000a00188009e
:1006d0000000fa008a60a9003be1a9000000eb00dd
:1006e000800988008260a900101920004046880017
:1006f0000080fa003400f9004f0078000040060046
:100700003600f800809fbe00829fbe003400f800d3
:1007100000002000a00188000000fa0084e0a90089
:100720008400a90010048000e100600010c0b30044
:10073000e08f5000010032000040eb000080fb0021
:100740006100600012048000e1ff2f008100610061
:1007500000807000100488001004800061006000b8
:10076000e00f500012003200614680000246800017
:10077000f000200080017800811f7800110009003e
:100780000381d80001017800cf007800000040000c
:100790000080400031088000010878000000eb0074
:1007a00030088800e147800010c0b300804878001e
:1007b00010048000e100600010c0b300e08f500022
:1007c000010032000040eb000080fb00610060008f
:1007d00012048000e1ff2f008100610000807000a2
:1007e0001004880010048000004078006140600020
:1007f0000080fb004f00dd0082088000f1ff270031
:100800008100610000807000800888000080fa008c
:100810003400f9004f01be004f00be003600f90061
:10082000004006003600f800809fbe00829fbe0098
:100830003400f80000002000a00188000000fa0049
:100840008760a9008680a90010048000e200600093
:1008500010c0b300e08f5000010032000040eb00f8
:100860000080fb0061006000000040001204800076
:10087000d1ff2f008100610000807000100488000b
:100880001004800062006000e00f5000140032008d
:100890006146800002468000f00020008001780060
:1008a000811f7800110009000381d8000101780040
:1008b000cf007800a005b00000004000008040009c
:1008c000a1088000010878000000eb00a008880063
:1008d000e04780008000e80010c0b3008048780046
:1008e00010048000e200600010c0b300e08f5000f0
:1008f000010032000040eb000080fb00610060005e
:100900000000400012048000d1ff2f008100610030
:100910000080700010048800100480000000d100e6
:10092000614060000080fb004f00dd00f2088000a5
:10093000f1ff27008100610000807000f00888004e
:100940000080fa003400f9004f01be004f00be00e5
:100950003600f900004006003600f800809fbe0017
:10096000829fbe003400f80000002000a001880033
:100970000000fa0089e0a90087a0a9001004800007
:10098000e400600010c0b300e08f500001003200ae
:100990000040eb000080fb00610060004200dd00d1
:1009a00012048000b1ff2f00810061000080700000
:1009b000100488001004800064006000e00f500004
:1009c000140032006146800002468000f0002000e2
:1009d00080017800811f7800110009000381d80090
:1009e00001017800cf007800400bb000000040000b
:1009f0000080400011098000010878000000eb0031
:100a000010098800e04780008080e80010c0b30033
:100a10008048780010048000e400600010c0b3003b
:100a2000e08f5000010032000040eb000080fb002e
:100a3000610060004200dd0012048000b1ff2f0061
:100a400081006100008070001004880010048000a4
:100a50004200de00614060000080fb004f00dd00ce
:100a600062098000f1ff27008100610000807000b2
:100a7000600988000080fa003400f9004f01be00d0
:100a80004f00be003600f900004006003600f800b6
:100a9000809fbe00829fbe003400f800000020004e
:100aa000a00188000000fa008a60a9008aa0a900bd
:100ab0001004800068006000e00f50001400320055
:100ac0006146800002468000f0002000800178002e
:100ad000811f7800110009000381d800010178000e
:100ae000cf007800e010b00000004000008040001f
:100af00081098000010878000000eb00800988006f
:100b0000e0478000e300400010c0b3008048780058
:100b100010048000e800600010c0b300e08f5000b7
:100b2000010032000040eb000080fb00610060002b
:100b30004300dd001204800071ff2f00810061007e
:100b40000080700010048800100480004300de0064
:100b5000614060000080fb004f00dd00d209800092
:100b6000f1ff27008100610000807000d00988003b
:100b70000080fa003400f9004f01be004f00be00b3
:100b80003600f900004006000000fa0081e0a800ed
:100b90000000eb00200588000000eb003005880015
:100ba0000000eb00400588000000eb0050058800c5
:100bb0000000eb00600588000000eb007005880075
:100bc0000000eb00800588000000eb009005880025
:100bd0000000eb00a00588000000eb00b0058800d5
:100be0000000eb00c00588000000eb00d005880085
:100bf0000000eb00e00588000000eb00f005880035
:100c00000000eb00000688000000eb0010068800e2
:100c10000000eb00200688000000eb003006880092
:100c20002105800080ff2f00008060006000b3007d
:100c3000200588007105800080ff2f000080600083
:100c40006000b3007005880091058000f0f82f0067
:100c50008080600000062000008070009005880001
:100c6000f1058000f0f82f00808060000006200071
:100c700000807000f005880021058000000027003a
:100c800000807000200588003105800000002700ea
:100c9000008070003005880081058000000027007a
:100ca0000080700080058800d105800000002700ca
:100cb00000807000d0058800e1058000000027005a
:100cc00000807000e00588000000eb002004880030
:100cd0000000eb00300488000000eb0040048800b6
:100ce0000000eb00500488000000eb006004880066
:100cf0000000eb00a00488000000eb00b0048800b6
:100d00000000eb00c00488000000eb00d004880065
:100d10000000eb00e00488008200a9008220a90006
:100d20008240a9008260a9009460a80094e0a80015
:100d30009760a80099e0a8009a60a8009400a80015
:100d40009680a80097a0a8009aa0a8000080fa00aa
:100d5000000006000000fa008460a90084e0a900f9
:100d60008760a90089e0a9008a60a90005e1a900bf
:100d700021088000f0fc2f00008060000040a000ef
:100d8000200888000421a90004c1a90005a1a80029
:100d90000441a800f0ff27001008880011e1a90015
:100da0001061a90081088000f0fc2f000080600025
:100db000800888001021a90010c1a90011a1a80075
:100dc0000000eb00300888003063230060088800d2
:100dd0001fe1a9001e61a900f1088000f0fc2f00ae
:100de00000806000f00888001e21a9001ec1a90033
:100df0001fa1a8000000eb00a008880030632300ba
:100e0000d00888002de1a9002c61a90061098000ab
:100e1000f0fc2f0000806000600988002c21a900f0
:100e20002cc1a9002da1a8000000eb00100988002a
:100e300030632300400988003be1a9003a61a90022
:100e4000d1098000f0fc2f0000806000d0098800ec
:100e50003a21a9003ac1a9003ba1a8000000eb007b
:100e60008009880030632300b00988000080fa0000
:100e7000000006000000fa000040eb00cae8b700de
:100e80000000eb0000168800c1c2a8000016800018
:100e90004e00de00614060000080fb0061006000e9
:100ea0004d00dd0002168000f1ff2d008100610081
:100eb0000080700000168800001680004d00de00e3
:100ec000614060000080fb00610060004c00dd00bc
:100ed00002168000f1ff2e0081006100008070008a
:100ee000001688000000eb00f0168800dec2a800a3
:100ef000c602a9000080fa00000006000000fa0007
:100f000021ff070093ff0700daff07000080fa00c7
:100f1000000006000200fa00000f78000080fa00ce
:100f2000000006000000fa0005e1a800c602a900c2
:100f3000c802a900ffff37000200fa00000f780086
:0c0f4000100020000080fa0000000600f5
:020000040000fa
:100f4c00fc0800000200000000000000fe08000089
:100f5c000200000002000000000000000008000079
:100f6c00c2000000020000000000000000ee830040
:100f7c00843e000000003f00f30435003fd7b3006f
:100f8c005d3fea0046773f00000080003fea4600e4
:100f9c00773fd700b35d3f00f30435003f000000fe
:100fac00003fee0083843e0032310d0025ee8300bd
:100fbc0084be00000000bf00f3043500bfd7b300af
:100fcc005dbfea004677bf0000008000bfea460024
:100fdc0077bfd700b35dbf00f3043500bf0000003e
:100fec0000bfee008384be00000080003fea460094
:100ffc00773fd700b35d3f00f30435003f0000009e
:10100c00003fee0083843e0032318d0024ee8300dd
:10101c0084be00000000bf00f3043500bfd7b3004e
:10102c005dbfea004677bf0000008000bfea4600c3
:10103c0077bfd700b35dbf00f3043500bf000000dd
:10104c0000bfee008384be00cac95300a5ee830026
:10105c00843e000000003f00f30435003fd7b3008e
:10106c005d3fea0046773f0000000000c208000028
:0c107c003a00000000000000000000002e
:020000040000fa
:101088000000fa00113a8000f08f2f008080600085
:101098000030200000807000103a88004267a900e4
:1010a8004227a9004207a80045e7a900213a800085
:1010b800f0ff280000806000203a88004567a900fa
:1010c800213a8000f08f2f0000806000203a8800cd
:1010d800413a800000fc2f0000806000403a880000
:1010e80042e7a8000080fa00000006000000fa00ad
:1010f800e3ff07007fff070088ff070010002000bc
:081108000080fa00000006005f
:020000040000fa
:0200000401f009
:04000000feff0000ff
:020000040000fa
:0200000401f009
:04000400ff000000f9
:020000040000fa
:0200000401f009
:04000800ffff0000f6
:020000040000fa
:0200000401f009
:04000c0078ff000079
:020000040000fa
:0200000401f009
:04001000bfff00002e
:020000040000fa
:0200000401f009
:0400140060ff000089
:020000040000fa
:0200000401f009
:04001800ffff0000e6
:020000040000fa
:0200000401f009
:04001c00ffff0000e2
:00000001FF
