:020000040000fa
:080000000002040000000000f2
:020000040000fa
:10000800cc02000090020000960200009c02000052
:10001800a2020000a8020000cc020000cc020000ee
:1000280086090000cc020000cc0200009e080000f7
:10003800cc020000cc020000cc020000fe08000048
:10004800cc020000cc020000cc020000cc02000070
:10005800cc020000cc020000cc020000cc02000060
:10006800cc020000cc020000cc020000cc02000050
:10007800180a0000cc020000cc020000cc020000ec
:10008800cc020000cc020000cc0200001e090000d7
:10009800cc020000b20a0000cc020000cc02000032
:1000a800cc020000cc020000cc020000cc02000010
:1000b800cc020000cc020000cc020000cc02000000
:1000c800cc020000cc020000cc020000cc020000f0
:1000d800cc020000cc020000cc0200003e09000067
:1000e800cc020000cc020000cc0200005e09000037
:1000f800cc0200004c0b0000cc020000cc02000037
:10010800cc020000cc020000cc020000cc020000af
:10011800cc020000cc020000cc020000cc0200009f
:10012800cc020000cc020000cc020000cc0200008f
:10013800cc020000cc020000cc020000cc0200007f
:10014800cc020000cc020000cc020000cc0200006f
:10015800cc020000cc020000cc020000cc0200005f
:10016800cc020000cc020000cc020000cc0200004f
:10017800cc020000cc020000cc020000cc0200003f
:10018800cc020000cc020000cc020000cc0200002f
:10019800cc020000cc020000cc020000cc0200001f
:1001a800cc020000cc020000cc020000cc0200000f
:1001b800cc020000cc020000cc020000cc020000ff
:1001c800cc020000cc020000cc020000cc020000ef
:1001d800cc020000cc020000cc020000cc020000df
:1001e800cc020000cc020000cc020000cc020000cf
:0801f800cc020000cc02000063
:020000040000fa
:10020800cc020000ae020000b4020000ba020000f6
:10021800c0020000c6020000cc020000cc020000b0
:1002280086090000cc020000cc0200009e080000f5
:10023800cc020000cc020000cc020000fe08000046
:10024800cc020000cc020000cc020000cc0200006e
:10025800cc020000cc020000cc020000cc0200005e
:10026800cc020000cc020000cc020000cc0200004e
:10027800180a0000cc020000cc020000cc020000ea
:10028800cc020000cc020000cc0200001e090000d5
:10029800cc020000b20a0000cc020000cc02000030
:1002a800cc020000cc020000cc020000cc0200000e
:1002b800cc020000cc020000cc020000cc020000fe
:1002c800cc020000cc020000cc020000cc020000ee
:1002d800cc020000cc020000cc0200003e09000065
:1002e800cc020000cc020000cc0200005e09000035
:1002f800cc0200004c0b0000cc020000cc02000035
:10030800cc020000cc020000cc020000cc020000ad
:10031800cc020000cc020000cc020000cc0200009d
:10032800cc020000cc020000cc020000cc0200008d
:10033800cc020000cc020000cc020000cc0200007d
:10034800cc020000cc020000cc020000cc0200006d
:10035800cc020000cc020000cc020000cc0200005d
:10036800cc020000cc020000cc020000cc0200004d
:10037800cc020000cc020000cc020000cc0200003d
:10038800cc020000cc020000cc020000cc0200002d
:10039800cc020000cc020000cc020000cc0200001d
:1003a800cc020000cc020000cc020000cc0200000d
:1003b800cc020000cc020000cc020000cc020000fd
:1003c800cc020000cc020000cc020000cc020000ed
:1003d800cc020000cc020000cc020000cc020000dd
:1003e800cc020000cc020000cc020000cc020000cd
:0803f800cc020000cc02000061
:020000040000fa
:100400000f9020000eff27000e0188000000000062
:100410000c00070060ba2000010020001100070056
:10042000000020000000e000020032000000020096
:1004300000000000960c0200000000000040da00fe
:100440000000fe004440a900000020000000e00081
:100450000300320000002000a00188004440a800f2
:100460000000060091018800800078000000eb0089
:1004700015003700e280400032a0b4009101ba00bc
:10048000e280400032a0b4009102ba00e280400055
:1004900032a0b4000002eb00472bde00f507b200eb
:1004a000602ce10004003a000059eb008301e900f0
:1004b000fdff3e00040037006128e100010032002a
:1004c0000082eb00040007001101ba000200e00006
:1004d000e8ff3a00000006003159ba008301e90044
:1004e0000c0032002159ba008301e90008003200f3
:1004f0000400e00003003a00e280400032a0b400b3
:10050000f5ff370011d9ba008301e900faff3a007c
:100510008100e800e180400032a0b4000000060045
:100520000000fa008020a900ffff37000000fa0059
:100530008060a900ffff37000000fa008040a9009a
:10054000ffff37000000fa008080a900ffff37009e
:100550000000fa0080a0a900ffff37000000fa00a9
:100560008020a900ffff37000000fa008060a9008a
:10057000ffff37000000fa008040a900ffff3700ae
:100580000000fa008080a900ffff37000000fa0099
:1005900080a0a900ffff37000000fa00ffff37002e
:1005a000889fbe008a9fbe008c1f780068000700ed
:1005b0006f00330003866c006450e1002e003200af
:1005c0006420e100330032006150e1002f0032006e
:1005d0006120e1003100320085855500eb07b00055
:1005e000090020000804200005003700080444002a
:1005f00089844c000a0031000603430087834b00c6
:100600000001530081815b00f8ff33000203be004c
:100610000800a0000804440089844c00f6ff39005b
:10062000c639dd0083017300010032001300200091
:100630008904d1000884d3000998a3000500320082
:100640000800a7000300a0008904d1000884d3009b
:100650008b05e8008904d1000884d3000001eb0079
:100660000281d2001400070001f0a1000cf0a700e5
:1006700001f0a000470037006420e100490032008b
:100680000801be000200be00f7ff37006120e10054
:10069000440032006000b800f3ff37000000200083
:1006a00001f82700f0ff3700140020004000370059
:1006b0006011b800590037008100200061805500aa
:1006c0000b003d000b00200061fe2f000100e10047
:1006d0001d00340082817100610164008904d10031
:1006e0000884d3000000e800faff3a0071002000ff
:1006f0006100640003007000020060000900320025
:1007000061044400e0844c000988a5000500320023
:100710008b05e8006808e10002003a008904d10076
:100720000884d300f20f20000258e10005003d00cc
:10073000c75ddd00f907b200898075000800780008
:10074000000006000bf827008b0078000000050071
:100750000004be00600007000003be000405be00e8
:100760000200be005c000700844f75000000060018
:100770000200be006450e100050036006420e10084
:10078000020036000968a30001003a000800be001c
:100790000160a0004f0678004f05be004f04be0068
:1007a00000000600f0ff2f00f1ff2700f9ff3700df
:1007b000889fbe008a9fbe00841f7800e4ff070068
:1007c0004f00780011003300f0ff2f00838f6c0082
:1007d00006003b00040565000a00a700080037007a
:1007e00009f0a6001000200008003700820f540016
:1007f000838f5c00030039001000200001003e00e0
:100800000000200009f0a7000000ea004f05be002c
:100810004f04be000000e00000000600889fbe00fc
:100820008a9fbe0000827000040271000482710081
:10083000260032000004be000200be006011b800b5
:100840006b092000950220000182cf000a003900c8
:100850000541b1000082cf00070039000541b10019
:100860000982cf00040039000541b1000882cf00a1
:10087000010039000541b10005425200120032006a
:100880000a003b0082817100610164008100d10097
:100890000080d3008984d3000884d3008b05e8004e
:1008a0000442e800f7ff3a0007003700080444005c
:1008b00089844c0000004800818048008b05e900d5
:1008c0000442e900f9ff3a007bff07004f05be0034
:1008d0004f04be0000000600c70ade00f107b200a8
:1008e000f50fb20008003200e1cf420002003200f2
:1008f0000170a00024000500810f7000010032008b
:100900000408050044000500810f700002003a0051
:10091000140005008502e9000000400081c0480085
:0c092000fcff3b000170a000240005005b
:020000040000fa
:10092c000000fa0081e0a8000000eb002005880020
:10093c000000eb00300588000000eb00400588004b
:10094c000000eb00500588000000eb0060058800fb
:10095c000000eb00700588000000eb0080058800ab
:10096c000000eb00900588000000eb00a00588005b
:10097c000000eb00b00588000000eb00c00588000b
:10098c000000eb00d00588000000eb00e0058800bb
:10099c000000eb00f00588000000eb00000688006a
:1009ac000000eb00100688000000eb002006880019
:1009bc000000eb00300688002105800080ff2f002e
:1009cc00008060006000b300200588007105800085
:1009dc0080ff2f00008060006000b300700588006d
:1009ec0091058000f0f82f00808060000006200048
:1009fc000080700090058800f1058000f0f82f0051
:100a0c00808060000006200000807000f0058800e7
:100a1c002105800000002700008070002005880060
:100a2c003105800000002700008070003005880030
:100a3c008105800000002700008070008005880080
:100a4c00d10580000000270000807000d0058800d0
:100a5c00e10580000000270000807000e0058800a0
:100a6c000000eb00200488000000eb00300488003c
:100a7c000000eb00400488000000eb0050048800ec
:100a8c000000eb00600488000000eb00a00488006c
:100a9c000000eb00b00488000000eb00c0048800ec
:100aac000000eb00d00488000000eb00e00488009c
:100abc008200a9008220a9008240a9008260a900be
:100acc000080fa00000006000000fa008460a90013
:100adc0084e0a9008760a90089e0a9008a60a900c8
:100aec0005e1a900210880000003200000807000af
:100afc00200888000421a90004c1a90005a1a800b0
:100b0c000441a800a00220001008880011e1a900ef
:100b1c001061a90081088000f0fc2f0000806000ab
:100b2c00800888001021a90010c1a90011a1a800fb
:100b3c000000eb0030088800306323006008880058
:100b4c001fe1a9001e61a900f1088000f0fc2f0034
:100b5c0000806000f00888001e21a9001ec1a900b9
:100b6c001fa1a8000000eb00a00888003063230040
:100b7c00d00888002de1a9002c61a9006109800032
:100b8c00f0fc2f0000806000600988002c21a90077
:100b9c002cc1a9002da1a8000000eb0010098800b1
:100bac0030632300400988003be1a9003a61a900a9
:100bbc00d1098000f0fc2f0000806000d009880073
:100bcc003a21a9003ac1a9003ba1a8000000eb0002
:100bdc008009880030632300b00988000080fa0087
:100bec00000006000000fa000040eb00cae8b70065
:100bfc000000eb0000168800c1c2a800001680009f
:100c0c004e00de00614060000080fb00610060006f
:100c1c004d00dd0002168000f1ff2d008100610007
:100c2c000080700000168800001680004d00de0069
:100c3c00614060000080fb00610060004c00dd0042
:100c4c0002168000f1ff2e00810061000080700010
:100c5c00001688000000eb00f0168800dec2a80029
:100c6c00c602a9000080fa00000006000000fa008d
:100c7c002bff070094ff0700daff07000080fa0043
:100c8c00000006000200fa00000f78000080fa0055
:100c9c00000006003800fa00881f7800c602a90080
:100cac00a0022000100888000000eb00000888005b
:100cbc00d202a900d282a900d382a900d3a2a90092
:100ccc00d2c2a900d402a800d482a900d582a9005e
:100cdc00d5a2a900d4c2a900c1c2a800c3c2a90050
:100cec00c1e2a800c3e2a900de82a800e082a9004c
:100cfc00dea2a800e0a2a9000000eb00000888001a
:100d0c000080eb001008880021088000f0fc2f0008
:100d1c00008060000040a00020088800c802a800e5
:100d2c0020ff280001002000ef020700c802a900e4
:100d3c009004200001002000eb020700c802a8006c
:100d4c0000000000111680000000280000806000e8
:100d5c00e00f5000fbff320005e1a8000000eb00a3
:100d6c00000f780000000000111680000000280021
:100d7c0000806000e00f5000fbff3a00000880008c
:100d8c001007980005e1a9000000eb00000888009e
:100d9c000017200001002000d3020700c802a800a1
:100dac0020ff280001002000cf020700c802a90084
:100dbc009004200001002000cb020700c802a8000c
:100dcc00000000001116800000002400008060006c
:100ddc00e00f5000fbff32000000eb0020079800f2
:100dec0005e1a8000000000011168000000024009e
:100dfc0000806000e00f5000fbff3a00010880000b
:100e0c003107980005e1a9000000eb0000088800fc
:100e1c000017200001002000b3020700c802a80040
:100e2c0020ff280001002000af020700c802a90023
:100e3c009004200001002000ab020700c802a800ab
:100e4c00000000000017800070006000e00f5000f0
:100e5c00fcff320005e1a8000000eb004007980001
:100e6c00000000000017800070006000e00f5000d0
:100e7c00fcff3a00000880005007980005e1a9002b
:100e8c000000eb0000088800001720000100200083
:100e9c0095020700c802a80020ff280001002000ce
:100eac0091020700c802a900900420000100200054
:100ebc008d020700c802a800000000000117800086
:100ecc000002200000806000e00f5000fbff3200a9
:100edc000000eb006007980005e1a800000000008e
:100eec00011780000002200000806000e00f50001d
:100efc00fbff3a00010880007107980005e1a9008a
:100f0c000000eb0000088800001720000100200002
:100f1c00750207001e0090001e005000000f980084
:100f2c00be0090002e00900000805000100f980022
:100f3c00de0090004e00900000805000200f9800c2
:100f4c00fe0090006e00900000805000300f980062
:100f5c000e08900001002000d2fd070002002000c6
:100f6c00031e24008bfd0700400f9800510f9800c2
:100f7c004e089000de08900040179800511798001a
:100f8c001e08900001002000c6fd07000200200092
:100f9c00031e24007ffd0700600f9800710f98005e
:100fac006e089000fe08900060179800711798006a
:100fbc002e08900001002000bafd0700020020005e
:100fcc00031e240073fd07000017980011179800ea
:100fdc000e1090009e109000001f9800111f98009a
:100fec003e08900001002000aefd0700020020002a
:100ffc00031e240067fd0700201798003117980086
:10100c002e109000be109000201f9800311f9800e9
:10101c00d582a900d482a900d5a2a900d4c2a90066
:10102c0018c0b30002002000031724004e089000e3
:10103c00de08900099fd0700e00f5000010035001c
:10104c000044eb00e04f540001003200d582a800b0
:10105c0018c0b30002002000031724006e08900093
:10106c00fe0890008dfd0700e00f500001003500d8
:10107c000044eb00e04f540001003200d4c2a80041
:10108c0018c0b30002002000031724000e109000bb
:10109c009e10900081fd0700e00f5000010035000c
:1010ac000044eb00e04f540001003200d482a80051
:1010bc0018c0b30002002000031724002e1090006b
:1010cc00be10900075fd0700e00f500001003500c8
:1010dc000044eb00e04f540001003200d5a2a80000
:1010ec0040f7290051002000ff01070002ff3700e4
:1010fc000200fa00000f7800100020000080fa00b7
:10110c00000006000000fa0005e1a9000040eb0019
:10111c00fee8b700a0022000100888000000eb00d9
:10112c000008880005e1a8000080fa000000060015
:10113c00809fbe003400f80000002000a001880051
:10114c000000fa0005e1a9008460a900fec8bf00f8
:10115c000080fb00e10f50000f003200e20f500046
:10116c0017003200e00f50001a003a0010c0b30014
:10117c00fee8b7005002200010088800210880000b
:10118c00f0fc2f00008060000040a00020088800c8
:10119c00c802a8000f00370020c0b300fee8b7005b
:1011ac0021088000000320000080700020088800c7
:1011bc000080eb0010088800c802a9000500370069
:1011cc000040eb00fee8b7000080eb001008880040
:1011dc00000000000000eb000008880005e1a800fa
:1011ec000080fa003400f9004f00be0000400600f9
:1011fc00801f78003400f80000002000a001880057
:10120c000000fa0084e0a90011e1a9000000eb0045
:10121c00300888008200a9001019200010468800b0
:10122c000080fa003400f9004f00780000400600fe
:10123c00801f78003400f80000002000a001880016
:10124c000000fa008760a9001fe1a9000000eb0074
:10125c00a00888008220a9001019200020468800d0
:10126c000080fa003400f9004f00780000400600be
:10127c00801f78003400f80000002000a0018800d6
:10128c000000fa0089e0a9002de1a9000000eb00a4
:10129c00100988008240a9001019200030468800ef
:1012ac000080fa003400f9004f007800004006007e
:1012bc00809fbe003400f80000002000a0018800d0
:1012cc000000fa003be1a9008a60a9000000eb00d5
:1012dc00800988008260a90010192000404688000f
:1012ec00e0478000e300400010c0b3008048780065
:1012fc000080fa003400f9004f00be0000400600e8
:10130c003600f800809fbe00829fbe003400f800bb
:10131c0000002000a00188000000fa0084e0a90071
:10132c008400a90010048000e100600010c0b3002c
:10133c00e08f5000010032000040eb000080fb0009
:10134c006100600012048000e1ff2f008100610049
:10135c0000807000100488001004800061006000a0
:10136c00e00f5000120032006146800002468000ff
:10137c00f000200080017800811f78001100090026
:10138c000381d80001017800cf00780000004000f4
:10139c000080400031088000010878000000eb005c
:1013ac0030088800e147800010c0b3008048780006
:1013bc0010048000e100600010c0b300e08f50000a
:1013cc00010032000040eb000080fb006100600077
:1013dc0012048000e1ff2f0081006100008070008a
:1013ec001004880010048000004078006140600008
:1013fc000080fb004f00dd0082088000f1ff270019
:10140c008100610000807000800888000080fa0074
:10141c003400f9004f01be004f00be003600f90049
:10142c00004006003600f800809fbe00829fbe0080
:10143c003400f80000002000a00188000000fa0031
:10144c008760a9008680a90010048000e20060007b
:10145c0010c0b300e08f5000010032000040eb00e0
:10146c000080fb006100600000004000120480005e
:10147c00d1ff2f00810061000080700010048800f3
:10148c001004800062006000e00f50001400320075
:10149c006146800002468000f00020008001780048
:1014ac00811f7800110009000381d8000101780028
:1014bc00cf007800a005b000000040000080400084
:1014cc00a1088000010878000000eb00a00888004b
:1014dc00e04780008000e80010c0b300804878002e
:1014ec0010048000e200600010c0b300e08f5000d8
:1014fc00010032000040eb000080fb006100600046
:10150c000000400012048000d1ff2f008100610018
:10151c000080700010048800100480000000d100ce
:10152c00614060000080fb004f00dd00f20880008d
:10153c00f1ff27008100610000807000f008880036
:10154c000080fa003400f9004f01be004f00be00cd
:10155c003600f900004006003600f800809fbe00ff
:10156c00829fbe003400f80000002000a00188001b
:10157c000000fa0089e0a90087a0a90010048000ef
:10158c00e400600010c0b300e08f50000100320096
:10159c000040eb000080fb00610060004200dd00b9
:1015ac0012048000b1ff2f008100610000807000e8
:1015bc00100488001004800064006000e00f5000ec
:1015cc00140032006146800002468000f0002000ca
:1015dc0080017800811f7800110009000381d80078
:1015ec0001017800cf007800400bb00000004000f3
:1015fc000080400011098000010878000000eb0019
:10160c0010098800e04780008080e80010c0b3001b
:10161c008048780010048000e400600010c0b30023
:10162c00e08f5000010032000040eb000080fb0016
:10163c00610060004200dd0012048000b1ff2f0049
:10164c00810061000080700010048800100480008c
:10165c004200de00614060000080fb004f00dd00b6
:10166c0062098000f1ff270081006100008070009a
:10167c00600988000080fa003400f9004f01be00b8
:10168c004f00be003600f90000400600809fbe00ef
:10169c00821f78003400f80000002000a0018800b0
:1016ac000000fa008a60a9008aa0a900100480003a
:1016bc0068006000e00f50000b0032003be1a90015
:1016cc006046800081098000010878000000eb0072
:1016dc0080098800e0478000e300400010c0b300a0
:1016ec0080487800030037000000eb008009880078
:1016fc003be1a80010048000e800600010c0b300bb
:10170c00e08f5000010032000040eb000080fb0035
:10171c00610060004300dd001204800071ff2f00a7
:10172c008100610000807000100488000080fa00c5
:10173c003400f9004f0178004f00be000040060055
:020000040000fa
:10174c00fc0800000200000000000000fe08000081
:10175c000200000002000000000100000008000070
:10176c00c2000000020000000000000000ee830038
:10177c00843e000000003f00f30435003fd7b30067
:10178c005d3fea0046773f00000080003fea4600dc
:10179c00773fd700b35d3f00f30435003f000000f6
:1017ac00003fee0083843e0032310d0025ee8300b5
:1017bc0084be00000000bf00f3043500bfd7b300a7
:1017cc005dbfea004677bf0000008000bfea46001c
:1017dc0077bfd700b35dbf00f3043500bf00000036
:1017ec0000bfee008384be00000080003fea46008c
:1017fc00773fd700b35d3f00f30435003f00000096
:10180c00003fee0083843e0032318d0024ee8300d5
:10181c0084be00000000bf00f3043500bfd7b30046
:10182c005dbfea004677bf0000008000bfea4600bb
:10183c0077bfd700b35dbf00f3043500bf000000d5
:10184c0000bfee008384be00cac95300a5ee83001e
:10185c00843e000000003f00f30435003fd7b30086
:10186c005d3fea0046773f0000000000c208000020
:0c187c003a000000000000000000000026
:020000040000fa
:101888000000fa00113a8000f08f2f00808060007d
:101898000030200000807000103a88004267a900dc
:1018a8004227a9004207a80045e7a900213a80007d
:1018b800f0ff280000806000203a88004567a900f2
:1018c800213a8000f08f2f0000806000203a8800c5
:1018d800413a800000fc2f0000806000403a8800f8
:0c18e80042e7a8000080fa0000000600a3
:020000040000fa
:1018f400f03fb1000180b10006003500ee0309009d
:1019040000000000403fb1000180b100fbff3d003a
:101914001000b000203fb000020035000080090034
:081924000000000000000600b5
:020000040000fa
:10192c000000fa00d5ff0700d0fc0700d9fc070027
:0c193c00100020000080fa0000000600ef
:020000040000fa
:0200000401f009
:04000000feff0000ff
:020000040000fa
:0200000401f009
:04000400ff000000f9
:020000040000fa
:0200000401f009
:04000800ffff0000f6
:020000040000fa
:0200000401f009
:04000c0078ff000079
:020000040000fa
:0200000401f009
:04001000bfff00002e
:020000040000fa
:0200000401f009
:0400140060ff000089
:020000040000fa
:0200000401f009
:04001800ffff0000e6
:020000040000fa
:0200000401f009
:04001c00ffff0000e2
:00000001FF
